:100000000EC028C027C026C025C024C023C022C0DF
:1000100021C020C01FC01EC01DC01CC01BC0112499
:100020001FBECFE5D2E0DEBFCDBF10E0A0E6B0E05E
:10003000E6E0F6E002C005900D92A836B107D9F7C8
:1000400020E0A8E6B0E001C01D92AE36B207E1F7AD
:1000500002D0D7C2D5CF81E087BB16BAC0E0D0E0CE
:1000600000E610E086B38830E9F72196DF93CF935E
:100070001F930F930AD00F900F900F900F90C031E5
:1000800087E2D8077CF3B09AEDCFA0E0B0E0EAE4D5
:10009000F0E090C2FE01359661917191AF018091BF
:1000A0006A0090916B0002D0E2E0A0C2ACE0B0E048
:1000B000EBE5F0E06FC27C016B018A01FC01178265
:1000C0001682838181FFB0C1CE0101964C01F701F8
:1000D0009381F60193FD859193FF81916F018823B0
:1000E00009F49EC1853239F493FD859193FF819186
:1000F0006F01853221F4B70190E0B1D1E8CF512CE6
:10010000312C20E02032A0F48B3269F030F48032C0
:1001100059F0833269F420612CC08D3239F080337C
:1001200039F4216026C02260246023C0286021C0E9
:1001300027FD27C030ED380F3A3078F426FF06C08F
:10014000852D6AE01ED2582E530E13C0832D6AE00F
:1001500018D2382E330E20620CC08E3221F426FDC8
:100160005FC1206406C08C3611F4206802C0883656
:1001700041F4F60193FD859193FF81916F01811107
:10018000C1CF982F9F7D9554933028F40C5F1F4F5B
:10019000FFE3F9830DC0833631F0833771F0833587
:1001A00009F057C021C0F801808189830E5F1F4F7D
:1001B00044244394512C540114C03801F2E06F0ED2
:1001C000711CF801A080B18026FF03C0652D70E08E
:1001D00002C06FEF7FEFC5012C8736D12C01830160
:1001E0002C852F77222E16C03801F2E06F0E711C7D
:1001F000F801A080B18026FF03C0652D70E002C029
:100200006FEF7FEFC5012C8714D12C012C8520685E
:10021000222E830123FC19C0832D90E04816590635
:10022000A0F4B70180E290E01AD13A94F5CFF5013D
:1002300027FC859127FE81915F01B70190E00FD1E6
:1002400031103A94F1E04F1A51084114510479F7F2
:10025000DEC0843611F0893631F5F80127FF07C07A
:1002600060817181828193810C5F1F4F08C0608122
:100270007181882777FD8095982F0E5F1F4F2F760D
:10028000B22E97FF09C090958095709561957F4F2C
:100290008F4F9F4F2068B22E2AE030E0A40111D189
:1002A000A82EA81843C0853729F42F7EB22E2AE045
:1002B00030E025C0F22FF97FBF2E8F36C1F018F441
:1002C000883579F0ADC0803719F0883721F0A8C0A3
:1002D0002F2F2061B22EB4FE0DC08B2D8460B82E5E
:1002E00009C024FF0AC09F2F9660B92E06C028E0DF
:1002F00030E005C020E130E002C020E132E0F8014A
:10030000B7FE07C060817181828193810C5F1F4FAE
:1003100006C06081718180E090E00E5F1F4FA401F4
:10032000D0D0A82EA818FB2DFF77BF2EB6FE0BC08D
:100330002B2D2E7FA51450F4B4FE0AC0B2FC08C0C9
:100340002B2D2E7E05C07A2C2B2D03C07A2C01C0BC
:10035000752C24FF0DC0FE01EA0DF11D8081803354
:1003600011F4297E09C022FF06C07394739404C05F
:10037000822F867809F0739423FD12C020FF06C0F7
:100380005A2C731418F4530C5718732C731460F40C
:10039000B70180E290E02C8762D073942C85F6CF71
:1003A000731410F4371801C0312C24FF11C0B701A9
:1003B00080E390E02C8753D02C8522FF16C021FFCC
:1003C00003C088E590E002C088E790E0B7010CC068
:1003D000822F867851F021FD02C080E201C08BE2BD
:1003E00027FD8DE2B70190E03AD0A51430F4B701B3
:1003F00080E390E034D05A94F8CFAA94F401EA0D47
:10040000F11D8081B70190E02AD0A110F6CF3320F2
:1004100009F45DCEB70180E290E021D03A94F7CFA5
:10042000F7018681978102C08FEF9FEF2C96E2E162
:10043000CDC0FC010590615070400110D8F7809547
:1004400090958E0F9F1F0895FC01615070400190A0
:100450000110D8F7809590958E0F9F1F08950F93E8
:100460001F93CF93DF93182F092FEB018B8181FD11
:1004700003C08FEF9FEF20C082FF10C04E815F81CD
:100480002C813D81421753077CF4E881F9819F015B
:100490002F5F3F4F39832883108306C0E885F98595
:1004A000812F0995892B29F72E813F812F5F3F4F9F
:1004B0003F832E83812F902FDF91CF911F910F913A
:1004C0000895FA01AA27283061F1203191F1E894CA
:1004D0006F936E7F6E5F7F4F8F4F9F4FAF4FB1E037
:1004E00040D0B4E03ED0670F781F891F9A1FA11D2E
:1004F000680F791F8A1F911DA11D6A0F711D811D33
:10050000911DA11D22D009F468943F91062E000C84
:100510003019000C000C3019305D3193CEF6CF014C
:100520000895462F4770405D4193B3E00FD0C9F75F
:10053000F6CF462F4F70405D4A3318F0495D31FDCC
:100540004052419302D0A9F7EACFB4E0A69597951F
:10055000879577956795BA95C9F7009761057105F5
:1005600008959B01AC010A2E06945795479537953F
:100570002795BA95C9F7620F731F841F951FA01D99
:100580000895002480FD060E660F11F08695D1F7C0
:10059000802D08952F923F924F925F926F927F929B
:1005A0008F929F92AF92BF92CF92DF92EF92FF9283
:1005B0000F931F93CF93DF93CDB7DEB7CA1BDB0B2F
:1005C0000FB6F894DEBF0FBECDBF09942A883988D4
:1005D00048885F846E847D848C849B84AA84B984DB
:1005E000C884DF80EE80FD800C811B81AA81B981E7
:1005F000CE0FD11D0FB6F894DEBF0FBECDBFED01FB
:060600000895F894FFCFFD
:08060600636F756E74657200EC
:00000001FF
